:100000007BC0000098C0000096C0000094C00000B3
:1000100092C0000097C000008EC000008CC000009D
:100020008AC0000088C0000086C0000084C00000B4
:1000300082C0000080C000007EC000007CC00000C4
:100040007AC0000093C0000076C0000074C00000B9
:1000500072C0000070C000006EC000006CC00000E4
:100060006AC0000068C0000066C0000064C00000F4
:1000700062C0000060C000005EC000005CC0000004
:100080005AC0000058C0000056C0000054C0000014
:1000900052C0000050C000004EC000004CC0000024
:1000A0004AC0000048C0000046C0000044C0000034
:1000B00042C0000040C000003EC000003CC0000044
:1000C0003AC0000038C0000036C0000034C0000054
:1000D00032C0000030C000002EC000002CC0000064
:1000E0002AC00000F80001010901110119012101D4
:1000F000290131013901410111241FBECFEFD1E2A5
:10010000DEBFCDBF00E00CBF12E0A0E0B2E0ECEA41
:10011000F4E000E00BBF02C007900D92A031B107E0
:10012000D9F722E0A0E1B2E001C01D92A231B207EE
:10013000E1F73DD0B9C164CF80E18DBB83E080930E
:100140006A0008951F920F920FB60F9211248F9399
:1001500081E080930002809111028F5F80931102F1
:100160008F910F900FBE0F901F9018951F920F92B6
:100170000FB60F9211248F9380911002813041F0BD
:1001800018F0823041F00AC082B18C7F82B909C078
:10019000109A119806C0119A109803C082B18C7FF2
:1001A00082B98F910F900FBE0F901F901895789481
:1001B00012B8C2DF7ED020E048E060E875E280E05F
:1001C00090E08DD01092110280910002882309F4F2
:1001D00066C0E09111028E2F90E0FC013197EA3069
:1001E000F10508F057C08827EE58FF4F8F4F21C107
:1001F0001092000281E090E0DFD0129A8AE0C6D02F
:100200004EC01092000282E090E0D6D08AE0BED0CC
:1002100046C01092000283E090E0CED08AE0B6D0D3
:100220003EC01092000284E090E0C6D08AE0AED0DA
:1002300036C01092000285E090E0BED08AE0A6D0E1
:100240002EC01092000286E090E0B6D08AE09ED0E8
:1002500026C01092000287E090E0AED08AE096D0EF
:100260001EC01092000288E090E0A6D08AE08ED0F6
:1002700016C01092000289E090E09ED08AE086D0FD
:100280000EC0109200028AE090E096D012988AE0A8
:100290007DD005C01092000281E092E07FD02FEF68
:1002A00081EE94E0215080409040E1F700C00000D2
:1002B0008BCF82EC809380008DE18093810082E07F
:1002C00080936F008CE990E0909387008093860084
:1002D00010928900109288008FEF81B908950F93D2
:1002E0001F93222329F028E92093C100789403C0AA
:1002F00028E12093C1008B019C010C52114021097F
:100300003109053D104C2140310508F52BEF240F34
:100310002430E8F4463061F018F4453031F014C070
:10032000473051F0483061F00FC01092C2000FC04A
:1003300022E02093C2000BC024E02093C20007C03B
:1003400026E02093C20003C026E02093C200DC0117
:10035000CB01880F991FAA1FBB1F880F991FAA1FC7
:10036000BB1F9C01AD01220F331F441F551F220FDD
:10037000331F441F551F60E074E284EF90E037D0D4
:1003800021502093C4001F910F910895E0ECF0E0FC
:10039000908195FFFDCF8093C6000895CF93DF93A2
:1003A000EC018881882329F02196F0DF8991811161
:1003B000FCCFDF91CF910895CF93DF93CDB7DEB718
:1003C0006E970FB6F894DEBF0FBECDBF4AE0BE01F8
:1003D0006F5F7F4F36D0CE010196E0DF6E960FB68D
:1003E000F894DEBF0FBECDBFDF91CF910895A1E29B
:1003F0001A2EAA1BBB1BFD010DC0AA1FBB1FEE1F9F
:10040000FF1FA217B307E407F50720F0A21BB30BE9
:10041000E40BF50B661F771F881F991F1A9469F765
:1004200060957095809590959B01AC01BD01CF01C1
:100430000895EE0FFF1F881F8BBF0790F691E02DE8
:100440001994BB274A3031F4992322F4BDE29095E8
:1004500081959F4F01C0BB27FB015527AA27880F15
:10046000991FAA1FA41710F0A41B83955051B9F728
:10047000A05DAA3308F0A95DA193009779F7B111A7
:10048000B1931192CB0100C0DC01FC01672F719187
:100490007723E1F7329704C07C916D93708362916A
:0C04A000AE17BF07C8F30895F894FFCF13
:1004AC00014F7574206F6620626F756E64730A005D
:00000001FF
