:1000000071C0000081C000007FC0000084C00000FB
:1000100093C0000079C0000077C0000075C00000E8
:1000200073C0000071C000006FC000006DC0000010
:100030006BC0000069C0000067C0000065C0000020
:1000400063C000008AC000005FC000005DC0000007
:100050005BC0000059C0000057C0000055C0000040
:1000600053C0000051C000004FC000004DC0000050
:100070004BC0000049C0000047C0000045C0000060
:1000800043C0000041C000003FC000003DC0000070
:100090003BC0000039C0000037C0000035C0000080
:1000A00033C0000031C000002FC000002DC0000090
:1000B0002BC0000029C0000027C0000025C00000A0
:1000C00023C0000021C000001FC000001DC00000B0
:1000D0001BC0000019C0000017C0000015C00000C0
:1000E00013C0000011241FBECFEFD1E2DEBFCDBF91
:1000F00000E00CBF22E0A0E0B2E001C01D92A230FF
:10010000B207E1F747D0DDC07BCF8CE08DBB80EF3D
:100110008093690008951F920F920FB60F921124D9
:100120008F93809101028F5F809301028F910F90D6
:100130000FBE0F901F9018951F920F920FB60F923F
:1001400011248F93809101028F5F809301028F9120
:100150000F900FBE0F901F9018951F920F920FB621
:100160000F9211248F9380910002813031F018F0AA
:10017000823031F008C012B807C081E082B904C0F3
:1001800082E082B901C012B88F910F900FBE0F901C
:100190001F9018957894B9DF08D020E048E060E817
:1001A00075E280E090E014D0FFCF82E2809380007F
:1001B0008DE1809381008CE990E09093870080939B
:1001C000860010928900109288008FEF81B90895FF
:1001D0000F931F93222329F028E92093C1007894DC
:1001E00003C028E12093C1008B019C010C521140F7
:1001F00021093109053D104C2140310508F52BEF4F
:10020000240F2430E8F4463061F018F4453031F022
:1002100014C0473051F0483061F00FC01092C20056
:100220000FC022E02093C2000BC024E02093C20044
:1002300007C026E02093C20003C026E02093C2003E
:10024000DC01CB01880F991FAA1FBB1F880F991FC4
:10025000AA1FBB1F9C01AD01220F331F441F551F56
:10026000220F331F441F551F60E074E284EF90E0BB
:1002700006D021502093C4001F910F910895A1E250
:100280001A2EAA1BBB1BFD010DC0AA1FBB1FEE1F10
:10029000FF1FA217B307E407F50720F0A21BB30B5B
:1002A000E40BF50B661F771F881F991F1A9469F7D7
:1002B00060957095809590959B01AC01BD01CF0133
:0602C0000895F894FFCF41
:00000001FF
