:1000000079C0000096C0000094C00000A8C00000A5
:10001000B7C000008EC000008CC000008AC0000085
:1000200088C0000086C0000084C0000082C00000BC
:1000300080C000007EC000007CC000007AC00000CC
:1000400078C0000076C0000074C0000072C00000DC
:1000500070C000006EC000006CC000006AC00000EC
:1000600068C000009EC0000064C0000062C00000C4
:1000700060C000005EC000005CC000005AC000000C
:1000800058C0000056C0000054C0000052C000001C
:1000900050C000004EC000004CC000004AC000002C
:1000A00048C0000046C0000044C0000042C000003C
:1000B00040C000003EC000003CC000003AC000004C
:1000C00038C0000036C0000034C0000032C000005C
:1000D00030C000002EC000002CC000002AC000006C
:1000E00028C00000F300F900FF0005010B01110119
:1000F00017011D0111241FBECFEFD1E2DEBFCDBF1E
:1001000000E00CBF12E0A0E0B2E0EEEEF4E000E0B0
:100110000BBF02C007900D92AE3CB107D9F722E0A9
:10012000AEECB2E001C01D92AF3CB207E1F7B9D02E
:10013000DCC166CF8FEF84B913B8089585B90895EF
:10014000883060F443B121E030E0B90102C0660FAD
:10015000771F8A95E2F7CB01842B85B908951F920A
:100160000F920FB60F9211248F938091CE028F5F62
:100170008093CE028F910F900FBE0F901F90189515
:100180001F920F920FB60F9211248F938091CE027F
:100190008F5F8093CE028F910F900FBE0F901F90B4
:1001A00018951F920F920FB60F9211240BB60F9253
:1001B0002F933F934F935F936F937F938F939F936F
:1001C000AF93BF93EF93FF93E091C6008E2F90E023
:1001D000FC01F097E830F10508F035C08827EE58AB
:1001E000FF4F8F4F47C180E0ABDF80E092E0F7D058
:1001F0002FC081E0A5DF84E192E0F1D029C082E048
:100200009FDF88E292E0EBD023C083E099DF8CE3AC
:1002100092E0E5D01DC084E093DF80E592E0DFD07E
:1002200017C085E08DDF84E692E0D9D011C086E06A
:1002300087DF88E792E0D3D00BC087E081DF8CE8CE
:1002400092E0CDD005C080E079DF80EA92E0C7D0AF
:10025000FF91EF91BF91AF919F918F917F916F919E
:100260005F914F913F912F910F900BBE0F900FBE5A
:100270000F901F90189510BA80E480937C0087E857
:1002800080937A0008956B9A83E88093900081E0D0
:100290008093910080E092E0909399008093980081
:1002A000089548DF20E048E060E875E280E090E0F3
:1002B00037D0E9DFE0DF0F2EFCE7EF2EF12CF02D39
:1002C0006894AA24A6F8CAE7D0E008E710E00F2E49
:1002D000F1E4BF2EF02DF701A0828881806488832D
:1002E000888186FDFDCFF801C080D1808DEB92E042
:1002F00076D0C60182D08AE06AD0F701B0828881C8
:1003000080648883888186FDFDCFF801C080D1801C
:1003100085EC92E064D0C60170D08AE058D0DBCF83
:100320000F931F93222329F028E92093C10078948A
:1003300003C028E12093C1008B019C010C521140A5
:1003400021093109053D104C2140310508F52BEFFD
:10035000240F2430E8F4463061F018F4453031F0D1
:1003600014C0473051F0483061F00FC01092C20005
:100370000FC022E02093C2000BC024E02093C200F3
:1003800007C026E02093C20003C026E02093C200ED
:10039000DC01CB01880F991FAA1FBB1F880F991F73
:1003A000AA1FBB1F9C01AD01220F331F441F551F05
:1003B000220F331F441F551F60E074E284EF90E06A
:1003C00037D021502093C4001F910F910895E0EC85
:1003D000F0E0908195FFFDCF8093C6000895CF9304
:1003E000DF93EC018881882329F02196F0DF899141
:1003F0008111FCCFDF91CF910895CF93DF93CDB7DB
:10040000DEB76E970FB6F894DEBF0FBECDBF4AE0E1
:10041000BE016F5F7F4F36D0CE010196E0DF6E9652
:100420000FB6F894DEBF0FBECDBFDF91CF91089518
:10043000A1E21A2EAA1BBB1BFD010DC0AA1FBB1FE8
:10044000EE1FFF1FA217B307E407F50720F0A21B5A
:10045000B30BE40BF50B661F771F881F991F1A94C7
:1004600069F760957095809590959B01AC01BD01F1
:10047000CF010895EE0FFF1F881F8BBF0790F691E5
:10048000E02D1994BB274A3031F4992322F4BDE2C0
:10049000909581959F4F01C0BB27FB015527AA2747
:1004A000880F991FAA1FA41710F0A41B8395505101
:1004B000B9F7A05DAA3308F0A95DA193009779F779
:1004C000B111B1931192CB0100C0DC01FC01672F87
:1004D00071917723E1F7329704C07C916D9370831B
:0E04E0006291AE17BF07C8F30895F894FFCFDE
:1004EE004C65642030206973207475726E656420CB
:1004FE006F6E0A004C65642031206973207475722A
:10050E006E6564206F6E0A004C656420322069733C
:10051E00207475726E6564206F6E0A004C656420DF
:10052E0033206973207475726E6564206F6E0A00D5
:10053E004C65642034206973207475726E65642076
:10054E006F6E0A004C6564203520697320747572D5
:10055E006E6564206F6E0A004C65642036206973E8
:10056E00207475726E6564206F6E0A004C6564208F
:10057E0037206973207475726E6564206F6E0A0081
:10058E00496E76616C696420696E7075742C206199
:10059E006C6C204C454473206F66660A00414443E0
:0E05AE0030203D200041444331203D2000001C
:00000001FF
