S011000050524A312D494B54352E73726563AC
S11300007EC000009BC0000099C0000097C00000A3
S113001095C00000F7C000003DC100008FC0000083
S11300208DC000008BC0000089C0000087C00000A4
S113003085C0000083C0000081C000007FC00000B4
S11300407DC000006FC1000079C0000077C00000CF
S113005075C0000073C0000071C000006FC00000D4
S11300606DC000006BC0000069C0000067C00000E4
S113007065C0000063C0000061C000005FC00000F4
S11300807BC100005BC0000059C0000057C00000E5
S113009055C0000053C0000051C000004FC0000014
S11300A04DC000004BC0000049C0000047C0000024
S11300B045C0000043C0000041C000003FC0000034
S11300C03DC000003BC0000039C0000037C0000044
S11300D035C0000033C0000031C000002FC0000054
S11300E02DC00000380276029902BE02E302080322
S11300F02C035A037E038903BE03E8031A04112464
S11301001FBECFEFD1E2DEBFCDBF00E00CBF12E0D7
S1130110A0E0B2E0ECECFEE000E00BBF02C0079010
S11301200D92A230B107D9F722E0A2E0B2E001C0FB
S11301301D92A630B207E1F746D1C6C661CF8FEF54
S113014087B981EC8093900084E08093910082E0F1
S11301508093710010929900109298008AE086B9F9
S1130160089586B1809586B908958F3F910524F44A
S11301701816190634F003C08EEF90E002C081E037
S113018090E09093990080939800089580E38DBB4C
S11301908FE080936A00089585E084BB089514BAC3
S11301A00895E0ECF0E0908195FFFDCF8093C600C8
S11301B00895CF93DF93EC018881882329F0219659
S11301C0F0DF89918111FCCFDF91CF910895CF9316
S11301D0DF93CDB7DEB76E970FB6F894DEBF0FBED0
S11301E0CDBF4AE0BE016F5F7F4F3BD6CE01019683
S11301F0E0DF6E960FB6F894DEBF0FBECDBFDF9181
S1130200CF9108951F920F920FB60F9211242F933E
S11302108F939F9380910402909105020397C9F4F0
S113022081E080930002809104029091050201967E
S113023090930502809304021DBA2FEF89E698E19A
S1130240215080409040E1F700C0000080E38CBB67
S11302508DBB81E08093000280910402909105029D
S1130260019690930502809304021DBA2FEF85EA4C
S11302709EE0215080409040E1F700C0000080E300
S11302808CBB8DBB9F918F912F910F900FBE0F90C0
S11302901F9018951F920F920FB60F9211242F934F
S11302A08F939F9380910402909105020397C9F460
S11302B081E08093000280910402909105020196EE
S11302C090930502809304021DBA2FEF89E698E10A
S11302D0215080409040E1F700C0000080E38CBBD7
S11302E08DBB81E08093000280910402909105020D
S11302F0019690930502809304021DBA2FEF85EABC
S11303009EE0215080409040E1F700C0000080E36F
S11303108CBB8DBB9F918F912F910F900FBE0F902F
S11303201F9018951F920F920FB60F9211248F935E
S11303309F9380910202909103028130910531F0E4
S113034018F0029759F011C012B80FC080B1813073
S113035011F412B80AC081E082B907C080B18230BA
S113036011F412B802C082E082B99F918F910F906C
S11303700FBE0F901F9018951F920F920FB60F92F9
S113038011240BB60F922F933F934F935F936F9368
S11303907F938F939F93AF93BF93EF93FF93E1DE8C
S11303A0FF91EF91BF91AF919F918F917F916F9149
S11303B05F914F913F912F910F900BBE0F900FBE05
S11303C00F901F9018957894E1DE62D220E048E007
S11303D060E875E280E090E09ED288E18093C100FD
S11303E086E08093C20087E68093C400A8DE81E0A3
S11303F090E0BBDE11D310D30FD30ED310920502BD
S11304001092040212B8C4E8D0E00F2EFCE08F2E44
S1130410912CF02D0F2EFBE0AF2EB12CF02D0F2ED2
S1130420FAE0CF2ED12CF02D6894662463F8712C59
S11304306894EE24E1F8F12C0F2EF7E04F2E512CA6
S1130440F02D0F2EF6E02F2E312CF02D809104028A
S113045090910502BCDEE0910402F091050231970F
S1130460ED30F10598F78827EE58FF4F8F4FF1C410
S113047080910002882399F110920002ABD28CDEA5
S113048082E390E072DE2FEF8DE399E42150804007
S11304909040E1F700C0000001E010E01093030277
S11304A0009302022FEF80E792E0215080409040B9
S11304B0E1F700C000001982188260E070E086EC69
S11304C092E4FCD12FEF82E597E0215080409040E8
S11304D0E1F700C00000109305020093040281E0DC
S11304E090E09093030280930202B0CF80910002C7
S11304F0882309F4ABCF6ED28FE39CE90197F1F71F
S113050000C00000109200021982188260E070E0BE
S113051086EC92E4D3D19FEF22E587E0915020400E
S11305208040E1F700C00000F0920502E09204026E
S11305308DCF80910002882309F488CF4BD28FE3BA
S11305409CE90197F1F700C00000109200021982A3
S1130550188260E070E086EC92E4B0D19FEF22E56F
S113056087E0915020408040E1F700C0000083E024
S113057090E0909305028093040268CF809100027A
S1130580882309F463CF26D28FE39CE90197F1F71E
S113059000C00000109200021982188260E070E02E
S11305A086EC92E48BD19FEF22E587E091502040C6
S11305B08040E1F700C0000084E090E090930502E1
S11305C08093040243CF80910002882309F43ECF34
S11305D001D28FE39CE90197F1F700C0000010926B
S11305E000021982188260E070E086EC92E466D121
S11305F09FEF22E587E0915020408040E1F700C062
S1130600000085E090E090930502809304021ECFE1
S113061080910002882309F419CFEDD1DBD18FE357
S11306209CE90197F1F700C00000109200021982C2
S1130630188260E070E084EB92E440D19FEF22E501
S113064087E0915020408040E1F700C000003092E4
S1130650050220920402FACE80910002882309F454
S1130660F5CEC9D1B7D18FE39CE90197F1F700C06A
S1130670000010920002F0920302E092020219823A
S1130680188260E070E086EC92E418D18EEF90E07E
S11306906CDD50920502409204029FEF29E688E146
S11306A0915020408040E1F700C0000082E390E0D8
S11306B05CDDCCCE80910002882309F4C7CE9BD1A7
S11306C089D18FE39CE90197F1F700C000001092F3
S11306D000021982188260E070E086EC92E4EED0A9
S11306E09FEF22E587E0915020408040E1F700C071
S11306F000007092050260920402A8CE6BD1809132
S113070004029091050201969093050280930402DD
S11307109DCE80910002882309F498CE5BD18FE3AB
S11307209CE90197F1F700C00000109200028EEFDF
S113073090E01BDD81E090E090930302809302023D
S11307408FE39CE90197F1F700C000001982188239
S113075060E070E086EC92E4B1D0D0920502C092E1
S113076004029FEF29E688E1915020408040E1F7A0
S113077000C0000082E390E0F8DC68CE80910002C3
S1130780882309F463CE37D125D18FE39CE90197FF
S1130790F1F700C000001092000281E090E0909315
S11307A00302809302021982188260E070E086E9F5
S11307B092E484D09FEF23EC89E091502040804064
S11307C0E1F700C00000B0920502A09204023ECE00
S11307D080910002882309F439CE0DD1FBD08FE338
S11307E09CE90197F1F700C000001092000260E05C
S11307F070E0CB0163D010920302109202029FEFCB
S113080027EA81E6915020408040E1F700C00000D3
S113081081E090E09093030280930202198218828F
S113082060E070E086EC92E449D0909205028092F8
S113083004020CCE80910002882309F407CEDBD099
S11308408FE39CE90197F1F700C0000010920002C9
S11308508EEF90E08ADC9FEF23ED80E391502040FF
S11308608040E1F700C000001092030210920202DF
S11308709FEF29E688E1915020408040E1F700C0D5
S113088000008DDC81E090E070DCB5D0A3D0DECD3B
S113089082E88093800084E1809381008DE790E07A
S11308A0909387008093860082E080936F0010927B
S11308B08900109288008FEF81B90895CF92DF925A
S11308C0EF92FF92CF93DF93C0918600D09187007F
S11308D020E030E048EC52E415D19B01AC0160E02B
S11308E070E080E89FE3A9D06B017C01BE0180E049
S11308F090E09CD19B01AC01C701B60125D26AD11D
S11309007093890060938800DF91CF91FF90EF90FE
S1130910DF90CF9008950F931F93222329F028E9A5
S11309202093C900789403C028E12093C9008B0167
S11309309C010C52114021093109053D104C214004
S1130940310508F52BEF240F2430E8F4463061F02C
S113095018F4453031F014C0473051F0483061F09C
S11309600FC01092CA000FC022E02093CA000BC02F
S113097024E02093CA0007C026E02093CA0003C0E5
S113098026E02093CA00DC01CB01880F991FAA1F1F
S1130990BB1F880F991FAA1FBB1F9C01AD01220F0B
S11309A0331F441F551F220F331F441F551F60E080
S11309B074E284EF90E02BD221502093CC001F915D
S11309C00F910895E8ECF0E0908195FFFDCF8093BE
S11309D0CE0008958EE7F6DF81E0F4DF80E0F2DFF9
S11309E080E0F0DF80E0EEDF8FEFECDF8FEFEADF17
S11309F08FEEE8CF08958EE7E5DF86E1E3DF80E060
S1130A00E1DF80E0DFDF80E0DDDF8FEFDBDF8AEE38
S1130A10D9DF8FEED7CF08958EE7D4DF84E0D2DF1D
S1130A2080E0D0DF80E0CEDF80E0CCDF8FEFCADF74
S1130A308CEFC8DF8FEEC6CF08955058BB27AA2786
S1130A400ED048C139D130F03ED120F031F49F3F6F
S1130A5011F41EF42EC10EF4E095E7FB24C1E92F36
S1130A604AD180F3BA17620773078407950718F011
S1130A7071F49EF562C10EF4E0950B2EBA2FA02DF1
S1130A800B01B90190010C01CA01A0011124FF2737
S1130A90591B99F0593F50F4503E68F11A16F04032
S1130AA0A22F232F342F4427585FF3CF4695379531
S1130AB02795A795F0405395C9F77EF41F16BA0BF6
S1130AC0620B730B840BBAF09150A1F0FF0FBB1FA4
S1130AD0661F771F881FC2F70EC0BA0F621F731FED
S1130AE0841F48F4879577956795B795F7959E3F4A
S1130AF008F0B3CF9395880F08F09927EE0F9795D8
S1130B00879508950CD0E6C0DED040F0D5D030F003
S1130B1021F45F3F19F0C7C0511110C1CAC0EBD016
S1130B2098F39923C9F35523B1F3951B550BBB27B0
S1130B30AA2762177307840738F09F5F5F4F220F5D
S1130B40331F441FAA1FA9F333D00E2E3AF0E0E856
S1130B5030D091505040E695001CCAF729D0FE2FA2
S1130B6027D0660F771F881FBB1F26173707480734
S1130B70AB07B0E809F0BB0B802DBF01FF279358EA
S1130B805F4F2AF09E3F510568F08DC0D7C05F3F8C
S1130B90ECF3983EDCF3869577956795B795F795D2
S1130BA09F5FC9F7880F911D9695879597F90895CA
S1130BB0E1E0660F771F881FBB1F62177307840766
S1130BC0BA0720F0621B730B840BBA0BEE1F88F775
S1130BD0E095089598D088F09F5790F0B92F992701
S1130BE0B751A0F0D1F0660F771F881F991F1AF034
S1130BF0BA95C9F712C0B13081F09FD0B1E0089521
S1130C009CC0672F782F8827B85F39F0B93FCCF3A1
S1130C10869577956795B395D9F73EF49095809529
S1130C20709561957F4F8F4F9F4F0895E89409C049
S1130C3097FB3EF490958095709561957F4F8F4F0B
S1130C409F4F9923A9F0F92F96E9BB279395F69521
S1130C50879577956795B795F111F8CFFAF4BB0F9F
S1130C6011F460FF1BC06F5F7F4F8F4F9F4F16C003
S1130C70882311F096E911C0772321F09EE8872F8D
S1130C80762F05C0662371F096E8862F70E060E049
S1130C902AF09A95660F771F881FDAF7880F9695C2
S1130CA0879597F9089597F99F6780E870E060E069
S1130CB008959FEF80EC089500240A9416161706F1
S1130CC018060906089500240A9412161306140639
S1130CD005060895092E0394000C11F4882352F09C
S1130CE0BB0F40F4BF2B11F460FF04C06F5F7F4F54
S1130CF08F4F9F4F089557FD9058440F551F59F03B
S1130D005F3F71F04795880F97FB991F61F09F3FF4
S1130D1079F087950895121613061406551FF2CF1D
S1130D204695F1DF08C0161617061806991FF1CF6D
S1130D3086957105610508940895E894BB27662794
S1130D407727CB0197F908950BD0C4CFB5DF28F0EE
S1130D50BADF18F0952309F0A6CFABCF1124EECF5C
S1130D60CADFA0F3959FD1F3950F50E0551F629F02
S1130D70F001729FBB27F00DB11D639FAA27F00DF0
S1130D80B11DAA1F649F6627B00DA11D661F829F17
S1130D902227B00DA11D621F739FB00DA11D621FFC
S1130DA0839FA00D611D221F749F3327A00D611D19
S1130DB0231F849F600D211D822F762F6A2F1124FB
S1130DC09F5750408AF0E1F088234AF0EE0FFF1F4E
S1130DD0BB1F661F771F881F91505040A9F79E3F85
S1130DE0510570F060CFAACF5F3FECF3983EDCF37F
S1130DF0869577956795B795F795E7959F5FC1F7C2
S1130E00FE2B880F911D9695879597F90895A1E279
S1130E101A2EAA1BBB1BFD010DC0AA1FBB1FEE1F70
S1130E20FF1FA217B307E407F50720F0A21BB30BBB
S1130E30E40BF50B661F771F881F991F1A9469F737
S1130E4060957095809590959B01AC01BD01CF0193
S1130E500895EE0FFF1F881F8BBF0790F691E02DBA
S1130E601994BB274A3031F4992322F4BDE29095BA
S1130E7081959F4F01C0BB27FB015527AA27880FE7
S1130E80991FAA1FA41710F0A41B83955051B9F7FA
S1130E90A05DAA3308F0A95DA193009779F7B11179
S1130EA0B1931192CB0100C0DC01FC01672F719159
S1130EB07723E1F7329704C07C916D93708362913C
S10F0EC0AE17BF07C8F30895F894FFCFE5
S1050ECC01001F
S9030000FC
