:100000007EC000009BC0000099C0000097C00000A7
:1000100095C00000F5C000003CC100008FC000008A
:100020008DC000008BC0000089C0000087C00000A8
:1000300085C0000083C0000081C000007FC00000B8
:100040007DC000006FC1000079C0000077C00000D3
:1000500075C0000073C0000071C000006FC00000D8
:100060006DC000006BC0000069C0000067C00000E8
:1000700065C0000063C0000061C000005FC00000F8
:100080007BC100005BC0000059C0000057C00000E9
:1000900055C0000053C0000051C000004FC0000018
:1000A0004DC000004BC0000049C0000047C0000028
:1000B00045C0000043C0000041C000003FC0000038
:1000C0003DC000003BC0000039C0000037C0000048
:1000D00035C0000033C0000031C000002FC0000058
:1000E0002DC0000033027802A102CC02F7022203E5
:1000F0004D038103AA03B403EF0325047104112403
:100100001FBECFEFD1E2DEBFCDBF00E00CBF12E0DB
:10011000A0E0B2E0E6E3F0E100E00BBF02C0079030
:100120000D92A230B107D9F722E0A2E0B2E001C0FF
:100130001D92A630B207E1F746D17BC761CF8FEFA2
:1001400087B981E48093900084E08093910082E0FD
:10015000809371001092990010929800089586B1D2
:10016000856086B908958F3F910524F41816190605
:1001700034F003C08EEF90E002C081E090E09093F5
:10018000990080939800089580E38DBB8FE0809361
:100190006A00089585E084BB089514BA0895E0ECE0
:1001A000F0E0908195FFFDCF8093C6000895CF9336
:1001B000DF93EC018881882329F02196F0DF899173
:1001C0008111FCCFDF91CF910895CF93DF93CDB70D
:1001D000DEB76E970FB6F894DEBF0FBECDBF4AE014
:1001E000BE016F5F7F4FF2D6CE010196E0DF6E96C3
:1001F0000FB6F894DEBF0FBECDBFDF91CF9108954B
:100200001F920F920FB60F9211242F938F939F93EB
:1002100080910402909105020397D1F481E08093CC
:1002200000028091040290910502019690930502CC
:10023000809304021DBA2FEF89E698E12150804097
:100240009040E1F700C0000080E38CBB8DBB19C07B
:1002500081E0809300028091040290910502019652
:1002600090930502809304021DBA2FEF85EA9EE069
:10027000215080409040E1F700C0000080E38CBB3B
:100280008DBB9F918F912F910F900FBE0F901F905C
:1002900018951F920F920FB60F9211242F938F93E0
:1002A0009F9380910402909105020397D1F481E01D
:1002B0008093000280910402909105020196909330
:1002C0000502809304021DBA2FEF89E698E12150C0
:1002D00080409040E1F700C0000080E38CBB8DBB04
:1002E00019C081E080930002809104029091050280
:1002F000019690930502809304021DBA2FEF85EAC0
:100300009EE0215080409040E1F700C0000080E373
:100310008CBB8DBB9F918F912F910F900FBE0F9033
:100320001F9018951F920F920FB60F9211248F9362
:100330009F9380910202909103028130910531F0E8
:1003400018F0029759F011C012B80FC080B1813077
:1003500011F412B80AC081E082B907C080B18230BE
:1003600011F412B802C082E082B99F918F910F9070
:100370000FBE0F901F9018951F920F920FB60F92FD
:1003800011240BB60F922F933F934F935F936F936C
:100390007F938F939F93AF93BF93EF93FF93DFDE92
:1003A000FF91EF91BF91AF919F918F917F916F914D
:1003B0005F914F913F912F910F900BBE0F900FBE09
:1003C0000F901F9018957894DFDEBAD220E048E0B5
:1003D00060E875E280E090E061D388E18093C1003D
:1003E00086E08093C20087E68093C400A8DE109266
:1003F00005021092040212B810927100C4E9D0E014
:100400000F2EF1E7AF2EB12CF02DEE24E394F12C5A
:1004100004E810E00F2EFCE08F2E912CF02D0F2E13
:10042000FBE06F2E712CF02D0F2EFAE04F2E512C89
:10043000F02D6894222423F8312C6894CC24C1F840
:10044000D12C8091040290910502BFDEE09104025C
:10045000F09105023197ED30F10598F78827EE58B5
:10046000FF4F8F4FABC580910002882351F3E3D239
:1004700082E0F5018083198218828FE090E073DEBC
:1004800010920002FFEF2BE782E9F15020408040FC
:10049000E1F700C000009FEFE0E7F2E09150E0409C
:1004A000F040E1F700C0000075DE2FEF89EF90E02B
:1004B000215080409040E1F700C00000F09203021C
:1004C000E0920202EFEFF1EE24E0E150F040204034
:1004D000E1F700C00000F8011182108260E070E0D6
:1004E00086EC92E443D2F0920502E0920402A9CF96
:1004F00080910002882309F4A4CF198218828FE02A
:1005000090E031DE87D28FE39CE90197F1F700C0DC
:10051000000010920002F8011182108260E070E089
:1005200086EC92E423D2FFEF22E587E0F1502040F1
:100530008040E1F700C00000D0920502C0920402A2
:1005400080CF80910002882309F47BCF1982188222
:100550008FE090E008DE5ED2EFE3FCE93197F1F73F
:1005600000C0000010920002F8011182108260E0C9
:1005700070E086EC92E4FAD1FFEF22E587E0F150DB
:1005800020408040E1F700C0000083E090E09093BD
:1005900005028093040255CF80910002882309F45C
:1005A00050CF198218828FE090E0DDDD33D2EFE387
:1005B000FCE93197F1F700C0000010920002F80149
:1005C0001182108260E070E086EC92E4CFD1FFEF00
:1005D00022E587E0F15020408040E1F700C00000B4
:1005E000E4E0F0E0F0930502E09304022ACF80916A
:1005F0000002882309F425CF198218828FE090E049
:10060000B2DD08D28FE39CE90197F1F700C000004A
:1006100010920002F8011182108260E070E086EC16
:1006200092E4A4D1FFEF22E587E0F1502040804022
:10063000E1F700C00000E5E0F0E0F0930502E09390
:100640000402FFCE80910002882309F4FACE1982B9
:1006500018828FE090E087DDDDD18FE39CE9019780
:10066000F1F700C0000010920002F8011182108220
:1006700060E070E084EB92E479D1FFEF22E587E05F
:10068000F15020408040E1F700C00000E6E0F0E0DB
:10069000F0930502E0930402D4CE809100028823F7
:1006A00009F4CFCEB7D18FE39CE90197F1F700C0F1
:1006B000000010920002D0920302C0920202F801E0
:1006C0001182108260E070E086EC92E44FD11982D2
:1006D00018828EEF90E047DD87E090E0909305026E
:1006E000809304029FEFE9E6F8E19150E040F0408A
:1006F000E1F700C00000198218828FE090E033DD3E
:10070000A0CE80910002882309F49BCE1982188222
:100710008FE090E028DD7ED18FE39CE90197F1F72F
:1007200000C0000010920002F8011182108260E007
:1007300070E086EC92E41AD1FFEF22E587E0F150F9
:1007400020408040E1F700C0000030920502209276
:10075000040277CE80910402909105020196909355
:100760000502809304026DCE80910002882309F473
:1007700068CE50D1EFE3FCE93197F1F700C00000FB
:1007800010920002198218828EEF90E0ECDCF09259
:100790000302E0920202FFEF21EE84E0F1502040DC
:1007A0008040E1F700C00000F8011182108260E093
:1007B00070E086EC92E4DAD0509205024092040296
:1007C000FFEF29E688E1F15020408040E1F700C0CA
:1007D0000000198218828FE090E0C5DC32CE809153
:1007E0000002882309F42DCE198218828FE090E050
:1007F000BADC10D1EFE3FCE93197F1F700C000005B
:1008000010920002F0920302E0920202FFEF21EE4A
:1008100084E0F15020408040E1F700C00000F80182
:100820001182108260E070E086EC92E49FD0FFEFCE
:1008300029E688E1F15020408040E1F700C0000047
:100840007092050260920402FCCD80910002882320
:1008500009F4F7CDDFD0EFE3FCE93197F1F700C001
:1008600000001092000260E070E0CB017FD0109297
:10087000030210920202198218828EEF90E073DC5C
:10088000FFEF29E688E1F15020408040E1F700C009
:100890000000198218828FE090E065DC9FEFE7E8A6
:1008A000F3E19150E040F040E1F700C00000F09229
:1008B0000302E09202022FEF81EE94E0215080408B
:1008C0009040E1F700C00000F8011182108260E062
:1008D00070E086EC92E44AD0909205028092040285
:1008E000B0CD80910002882309F4ABCD93D08FE383
:1008F0009CE90197F1F700C00000109200029FEF01
:10090000E3EDF0E39150E040F040E1F700C000007B
:10091000198218828EEF90E026DC1092030210926A
:1009200002022FEF89E698E1215080409040E1F7E4
:1009300000C0000032DCF501108218B88DD081CDE6
:1009400082E88093800084E1809381008DE790E0CD
:10095000909387008093860082E080936F001092CE
:100960008900109288008FEF81B90895CF92DF92AD
:10097000EF92FF92CF93DF936B017C0120E030E098
:1009800048EC52E492D2181664F020E030E0A9015D
:10099000C701B60140D1882364F4C12CD12C760163
:1009A00008C00F2EC12CD12CF8ECEF2EF2E4FF2E54
:1009B000F02DC0918600D091870020E030E048EC17
:1009C00052E4C701B6012BD19B01AC0160E070E09D
:1009D00080E89FE3BBD06B017C01BE0180E090E02A
:1009E000B2D19B01AC01C701B60163D280D1709333
:1009F000890060938800DF91CF91FF90EF90DF90A6
:100A0000CF900895E0EDF0E0908195FFFDCF8093C9
:100A1000D60008958EE7F6DF8FE0F4DF80E0F2DFA6
:100A200083E0F0DF81E0EEDF8FEFECDF8FEEEADFD7
:100A30008FEEE8CF08958EE7E5DF8FE0E3DF80E01B
:100A4000E1DF81E0DFDF81E0DDDF8FEFDBDF8FEEF5
:100A5000D9DF8FEED7CF08958EE7D4DF8FE0D2DFD6
:100A600080E0D0DF82E0CEDF81E0CCDF8FEFCADF35
:100A70008FEEC8DF8FEEC6CF08958EE7C3DF86E026
:100A8000C1DF80E0BFDF80E0BDDF8EE1BBDF8FEF45
:100A9000B9DF8CEDB7DF8FEEB5CF08950F931F93BD
:100AA000222329F028E92093D100789403C028E17B
:100AB0002093D1008B019C010C5211402109310976
:100AC000053D104C2140310508F52BEF240F243053
:100AD000E8F4463061F018F4453031F014C0473086
:100AE00051F0483061F00FC01092D2000FC022E0E8
:100AF0002093D2000BC024E02093D20007C026E050
:100B00002093D20003C026E02093D200DC01CB0169
:100B1000880F991FAA1FBB1F880F991FAA1FBB1FF1
:100B20009C01AD01220F331F441F551F220F331F9D
:100B3000441F551F60E074E284EF90E01DD2215005
:100B40002093D4009ADF1F910F9108955058BB272E
:100B5000AA270ED070C161D130F066D120F031F4F7
:100B60009F3F11F41EF456C10EF4E095E7FB4CC113
:100B7000E92F72D180F3BA176207730784079507CC
:100B800018F071F49EF58AC10EF4E0950B2EBA2F81
:100B9000A02D0B01B90190010C01CA01A001112483
:100BA000FF27591B99F0593F50F4503E68F11A162F
:100BB000F040A22F232F342F4427585FF3CF4695C0
:100BC00037952795A795F0405395C9F77EF41F16E2
:100BD000BA0B620B730B840BBAF09150A1F0FF0FAC
:100BE000BB1F661F771F881FC2F70EC0BA0F621F98
:100BF000731F841F48F4879577956795B795F79588
:100C00009E3F08F0B3CF9395880F08F09927EE0F19
:100C1000979587950895D4D008F481E008950CD075
:100C20000AC102D140F0F9D030F021F45F3F19F051
:100C3000EBC0511134C1EEC00FD198F39923C9F321
:100C40005523B1F3951B550BBB27AA2762177307D2
:100C5000840738F09F5F5F4F220F331F441FAA1F86
:100C6000A9F333D00E2E3AF0E0E830D09150504046
:100C7000E695001CCAF729D0FE2F27D0660F771FF4
:100C8000881FBB1F261737074807AB07B0E809F0D6
:100C9000BB0B802DBF01FF2793585F4F2AF09E3F6B
:100CA000510568F0B1C0FBC05F3FECF3983EDCF348
:100CB000869577956795B795F7959F5FC9F7880FE4
:100CC000911D9695879597F90895E1E0660F771F36
:100CD000881FBB1F621773078407BA0720F0621BC7
:100CE000730B840BBA0BEE1F88F7E0950895BCD008
:100CF00088F09F5790F0B92F9927B751A0F0D1F005
:100D0000660F771F881F991F1AF0BA95C9F712C08E
:100D1000B13081F0C3D0B1E00895C0C0672F782F03
:100D20008827B85F39F0B93FCCF3869577956795FA
:100D3000B395D9F73EF490958095709561957F4F66
:100D40008F4F9F4F0895E89409C097FB3EF490950C
:100D50008095709561957F4F8F4F9F4F9923A9F094
:100D6000F92F96E9BB279395F69587957795679523
:100D7000B795F111F8CFFAF4BB0F11F460FF1BC067
:100D80006F5F7F4F8F4F9F4F16C0882311F096E9FA
:100D900011C0772321F09EE8872F762F05C06623A8
:100DA00071F096E8862F70E060E02AF09A95660F61
:100DB000771F881FDAF7880F9695879597F908951A
:100DC000990F0008550FAA0BE0E8FEEF161617065C
:100DD000E807F907C0F012161306E407F50798F0C4
:100DE000621B730B840B950B39F40A2661F0232BDD
:100DF000242B252B21F408950A2609F4A140A69559
:100E00008FEF811D811D089597F99F6780E870E03D
:100E100060E008959FEF80EC089500240A94161670
:100E2000170618060906089500240A9412161306D8
:100E3000140605060895092E0394000C11F4882366
:100E400052F0BB0F40F4BF2B11F460FF04C06F5F82
:100E50007F4F8F4F9F4F089557FD9058440F551F58
:100E600059F05F3F71F04795880F97FB991F61F02C
:100E70009F3F79F087950895121613061406551FA3
:100E8000F2CF4695F1DF08C0161617061806991F0F
:100E9000F1CF86957105610508940895E894BB2704
:100EA00066277727CB0197F908958ADF08F48FEF3B
:100EB00008950BD0C0CFB1DF28F0B6DF18F095232E
:100EC00009F0A2CFA7CF1124EACFC6DFA0F3959FE8
:100ED000D1F3950F50E0551F629FF001729FBB2721
:100EE000F00DB11D639FAA27F00DB11DAA1F649FCD
:100EF0006627B00DA11D661F829F2227B00DA11D80
:100F0000621F739FB00DA11D621F839FA00D611D05
:100F1000221F749F3327A00D611D231F849F600D26
:100F2000211D822F762F6A2F11249F5750408AF05F
:100F3000E1F088234AF0EE0FFF1FBB1F661F771FEB
:100F4000881F91505040A9F79E3F510570F05CCF2B
:100F5000A6CF5F3FECF3983EDCF3869577956795D7
:100F6000B795F795E7959F5FC1F7FE2B880F911D09
:100F70009695879597F90895A1E21A2EAA1BBB1B97
:100F8000FD010DC0AA1FBB1FEE1FFF1FA217B30755
:100F9000E407F50720F0A21BB30BE40BF50B661F6B
:100FA000771F881F991F1A9469F76095709580952F
:100FB00090959B01AC01BD01CF010895EE0FFF1F7D
:100FC000881F8BBF0790F691E02D1994BB274A30FC
:100FD00031F4992322F4BDE2909581959F4F01C091
:100FE000BB27FB015527AA27880F991FAA1FA41703
:100FF00010F0A41B83955051B9F7A05DAA3308F0F7
:10100000A95DA193009779F7B111B1931192CB012A
:1010100000C0DC01FC01672F71917723E1F7329763
:1010200004C07C916D9370836291AE17BF07C8F3C3
:061030000895F894FFCFC3
:021036000100B7
:00000001FF
