:1000000071C0000081C000007FC000007DC0000002
:100010007BC0000080C0000077C0000075C00000F9
:1000200073C0000071C000006FC000006DC0000010
:100030006BC0000069C0000067C0000065C0000020
:1000400063C0000097C000005FC000005DC00000FA
:100050005BC0000059C0000057C0000055C0000040
:1000600053C0000051C000004FC000004DC0000050
:100070004BC0000049C0000047C0000045C0000060
:1000800043C0000041C000003FC000003DC0000070
:100090003BC0000039C0000037C0000035C0000080
:1000A00033C0000031C000002FC000002DC0000090
:1000B0002BC0000029C0000027C0000025C00000A0
:1000C00023C0000021C000001FC000001DC00000B0
:1000D0001BC0000019C0000017C0000015C00000C0
:1000E00013C0000011241FBECFEFD1E2DEBFCDBF91
:1000F00000E00CBF22E0A0E0B2E001C01D92A230FF
:10010000B207E1F754D023C37BCF80E18DBB83E0FE
:1001100080936A0008951F920F920FB60F921124D8
:100120000BB60F922F933F934F935F936F937F93F1
:100130008F939F93AF93BF93EF93FF9380910102AF
:100140008F5F809301028091010290E073D1FF9153
:10015000EF91BF91AF919F918F917F916F915F913F
:100160004F913F912F910F900BBE0F900FBE0F90AC
:100170001F9018951F920F920FB60F9211248F9314
:1001800080910002813031F018F0823031F008C0E7
:1001900012B807C081E082B904C082E082B901C010
:1001A00012B88F910F900FBE0F901F9018957894F2
:1001B000ACDFABD020E048E060E875E280E090E0A2
:1001C000CCD082E390E0BAD08FE39CE90197F1F7BD
:1001D00000C000008091000290E0ADD09FEF24E3CA
:1001E0008CE0915020408040E1F700C0000086E4A0
:1001F00090E0A4D09FEF24E38CE091502040804019
:10020000E1F700C0000080E590E098D09FEF24E384
:100210008CE0915020408040E1F700C000008AE56A
:1002200090E08CD09FEF24E38CE091502040804000
:10023000E1F700C0000084E690E080D09FEF24E367
:100240008CE0915020408040E1F700C00000809198
:10025000000290E071D09FEF24E38CE091502040A9
:100260008040E1F700C000008091000290E065D07E
:100270009FEF24E38CE0915020408040E1F700C0E4
:1002800000008091000290E057D09FEF24E38CE0C3
:10029000915020408040E1F700C0000084E690E0EB
:1002A0004DD09FEF24E38CE0915020408040E1F757
:1002B00000C000008AE590E041D09FEF24E38CE08D
:1002C000915020408040E1F700C0000080E590E0C0
:1002D00035D09FEF24E38CE0915020408040E1F73F
:1002E00000C0000086E490E029D09FEF24E38CE07A
:1002F000915020408040E1F700C000008091000252
:1003000090E01BD080E090E0089582EC8093800024
:100310008DE18093810082E080936F008CE990E012
:100320009093870080938600109289001092880035
:100330008FEF81B9089508950895089560E070E001
:10034000CB01C1D024E13EEA47EC5FE320D18DD060
:10035000709389006093880008950F931F93222360
:1003600029F028E92093C100789403C028E1209364
:10037000C1008B019C010C52114021093109053D3E
:10038000104C2140310508F52BEF240F2430E8F400
:10039000463061F018F4453031F014C0473051F068
:1003A000483061F00FC01092C2000FC022E02093CD
:1003B000C2000BC024E02093C20007C026E02093B7
:1003C000C20003C026E02093C200DC01CB01880FED
:1003D000991FAA1FBB1F880F991FAA1FBB1F9C0133
:1003E000AD01220F331F441F551F220F331F441F1F
:1003F000551F60E074E284EF90E054D121502093C7
:10040000C4001F910F910895E0ECF0E0908195FFFA
:10041000FDCF8093C6000895CF93DF93EC018881D0
:10042000882329F02196F0DF89918111FCCFDF919B
:10043000CF910895CF93DF93CDB7DEB76E970FB608
:10044000F894DEBF0FBECDBF4AE0BE016F5F7F4FA5
:100450004BD1CE010196E0DF6E960FB6F894DEBF69
:100460000FBECDBFDF91CF91089570D088F09F5718
:1004700090F0B92F9927B751A0F0D1F0660F771FF0
:10048000881F991F1AF0BA95C9F712C0B13081F0D0
:1004900077D0B1E0089574C0672F782F8827B85FB0
:1004A00039F0B93FCCF3869577956795B395D9F731
:1004B0003EF490958095709561957F4F8F4F9F4F3B
:1004C0000895E89409C097FB3EF490958095709547
:1004D00061957F4F8F4F9F4F9923A9F0F92F96E990
:1004E000BB279395F695879577956795B795F11105
:1004F000F8CFFAF4BB0F11F460FF1BC06F5F7F4FA2
:100500008F4F9F4F16C0882311F096E911C07723B3
:1005100021F09EE8872F762F05C0662371F096E8BC
:10052000862F70E060E02AF09A95660F771F881F8B
:10053000DAF7880F9695879597F9089557FD9058A3
:10054000440F551F59F05F3F71F04795880F97FB97
:10055000991F61F09F3F79F0879508951216130651
:100560001406551FF2CF4695F1DF08C01616170680
:100570001806991FF1CF86957105610508940895B5
:10058000E894BB2766277727CB0197F908950BD00E
:1005900078C069D028F06ED018F0952309F05AC0C1
:1005A0005FC01124EECFCADFA0F3959FD1F3950F62
:1005B00050E0551F629FF001729FBB27F00DB11DE7
:1005C000639FAA27F00DB11DAA1F649F6627B00D77
:1005D000A11D661F829F2227B00DA11D621F739F60
:1005E000B00DA11D621F839FA00D611D221F749F6E
:1005F0003327A00D611D231F849F600D211D822FB5
:10060000762F6A2F11249F5750408AF0E1F08823FB
:100610004AF0EE0FFF1FBB1F661F771F881F915008
:100620005040A9F79E3F510570F014C0AACF5F3F1C
:10063000ECF3983EDCF3869577956795B795F7953B
:10064000E7959F5FC1F7FE2B880F911D96958795C3
:1006500097F9089597F99F6780E870E060E0089542
:100660009FEF80EC089500240A94161617061806CA
:100670000906089500240A941216130614060506A6
:100680000895092E0394000C11F4882352F0BB0F37
:1006900040F4BF2B11F460FF04C06F5F7F4F8F4F9A
:1006A0009F4F0895A1E21A2EAA1BBB1BFD010DC08E
:1006B000AA1FBB1FEE1FFF1FA217B307E407F50712
:1006C00020F0A21BB30BE40BF50B661F771F881FEE
:1006D000991F1A9469F760957095809590959B0184
:1006E000AC01BD01CF010895BB274A3031F49923F5
:1006F00022F4BDE2909581959F4F01C0BB27FB017D
:100700005527AA27880F991FAA1FA41710F0A41B0A
:1007100083955051B9F7A05DAA3308F0A95DA19364
:10072000009779F7B111B1931192CB0100C0DC01B0
:10073000FC01672F71917723E1F7329704C07C9118
:100740006D9370836291AE17BF07C8F30895F89454
:02075000FFCFD9
:00000001FF
