:100000007BC0000098C0000096C0000094C00000B3
:1000100092C0000097C000008EC000008CC000009D
:100020008AC0000088C0000086C0000084C00000B4
:1000300082C0000080C000007EC000007CC00000C4
:100040007AC0000093C0000076C0000074C00000B9
:1000500072C0000070C000006EC000006CC00000E4
:100060006AC0000068C0000066C0000064C00000F4
:1000700062C0000060C000005EC000005CC0000004
:100080005AC0000058C0000056C0000054C0000014
:1000900052C0000050C000004EC000004CC0000024
:1000A0004AC0000048C0000046C0000044C0000034
:1000B00042C0000040C000003EC000003CC0000044
:1000C0003AC0000038C0000036C0000034C0000054
:1000D00032C0000030C000002EC000002CC0000064
:1000E0002AC00000F300FB0003010B0113011B01F8
:1000F00023012B0133013B0111241FBECFEFD1E2BD
:10010000DEBFCDBF00E00CBF12E0A0E0B2E0EEE940
:10011000F4E000E00BBF02C007900D92A031B107E0
:10012000D9F722E0A0E1B2E001C01D92A231B207EE
:10013000E1F739D0B2C164CF80E18DBB83E0809319
:100140006A0008951F920F920FB60F9211248F9399
:1001500081E080930002809111028F5F80931102F1
:100160008F910F900FBE0F901F9018951F920F92B6
:100170000FB60F9211248F9380911002813031F0CD
:1001800018F0823031F008C012B807C081E082B99F
:1001900004C082E082B901C012B88F910F900FBEE7
:1001A0000F901F9018957894C7DF7CD020E048E02E
:1001B00060E875E280E090E08BD0109211028091AF
:1001C0000002882309F464C0E09111028E2F90E0B0
:1001D000FC013197EA30F10508F055C08827EE5848
:1001E000FF4F8F4F1FC11092000281E090E0DDD0E1
:1001F0008AE0C5D04DC01092000282E090E0D5D0D8
:100200008AE0BDD045C01092000283E090E0CDD0DE
:100210008AE0B5D03DC01092000284E090E0C5D0E5
:100220008AE0ADD035C01092000285E090E0BDD0EC
:100230008AE0A5D02DC01092000286E090E0B5D0F3
:100240008AE09DD025C01092000287E090E0ADD0FA
:100250008AE095D01DC01092000288E090E0A5D001
:100260008AE08DD015C01092000289E090E09DD008
:100270008AE085D00DC0109200028AE090E095D00F
:100280008AE07DD005C01092000281E092E07FD02C
:100290002FEF81EE94E0215080409040E1F700C0C4
:1002A00000008DCF82EC809380008DE180938100EF
:1002B00082E080936F008CE990E0909387008093B8
:1002C000860010928900109288008FEF81B90895FE
:1002D0000F931F93222329F028E92093C1007894DB
:1002E00003C028E12093C1008B019C010C521140F6
:1002F00021093109053D104C2140310508F52BEF4E
:10030000240F2430E8F4463061F018F4453031F021
:1003100014C0473051F0483061F00FC01092C20055
:100320000FC022E02093C2000BC024E02093C20043
:1003300007C026E02093C20003C026E02093C2003D
:10034000DC01CB01880F991FAA1FBB1F880F991FC3
:10035000AA1FBB1F9C01AD01220F331F441F551F55
:10036000220F331F441F551F60E074E284EF90E0BA
:1003700037D021502093C4001F910F910895E0ECD5
:10038000F0E0908195FFFDCF8093C6000895CF9354
:10039000DF93EC018881882329F02196F0DF899191
:1003A0008111FCCFDF91CF910895CF93DF93CDB72B
:1003B000DEB76E970FB6F894DEBF0FBECDBF4AE032
:1003C000BE016F5F7F4F36D0CE010196E0DF6E96A3
:1003D0000FB6F894DEBF0FBECDBFDF91CF91089569
:1003E000A1E21A2EAA1BBB1BFD010DC0AA1FBB1F39
:1003F000EE1FFF1FA217B307E407F50720F0A21BAB
:10040000B30BE40BF50B661F771F881F991F1A9417
:1004100069F760957095809590959B01AC01BD0141
:10042000CF010895EE0FFF1F881F8BBF0790F69135
:10043000E02D1994BB274A3031F4992322F4BDE210
:10044000909581959F4F01C0BB27FB015527AA2797
:10045000880F991FAA1FA41710F0A41B8395505151
:10046000B9F7A05DAA3308F0A95DA193009779F7C9
:10047000B111B1931192CB0100C0DC01FC01672FD7
:1004800071917723E1F7329704C07C916D9370836B
:0E0490006291AE17BF07C8F30895F894FFCF2E
:10049E00014F7574206F6620626F756E64730A006B
:00000001FF
