S011000050524A312D494B54352E73726563AC
S11300007BC0000098C0000096C0000094C00000AF
S113001092C00000C3C000008EC000008CC000006D
S11300208AC0000088C0000086C0000084C00000B0
S113003082C0000080C000007EC000007CC00000C0
S11300407AC00000C5C0000076C0000074C0000083
S113005072C0000070C000006EC000006CC00000E0
S11300606AC0000068C0000066C0000064C00000F0
S113007062C0000060C000005EC000005CC0000000
S1130080D3C0000058C0000056C0000054C0000097
S113009052C0000050C000004EC000004CC0000020
S11300A04AC0000048C0000046C0000044C0000030
S11300B042C0000040C000003EC000003CC0000040
S11300C03AC0000038C0000036C0000034C0000050
S11300D032C0000030C000002EC000002CC0000060
S11300E02AC000006B01890194019F01AA01B30198
S11300F0C101CC01E701040211241FBECFEFD1E2FC
S1130100DEBFCDBF00E00CBF12E0A0E0B2E0EAE445
S1130110F6E000E00BBF02C007900D92A230B107D9
S1130120D9F722E0A2E0B2E001C01D92A630B207E6
S1130130E1F7A1D088C264CF8FEF87B981EC8093B7
S1130140900084E08093910082E08093710010928B
S11301509900109298008AE086B9089586B1856066
S113016086B908958F3F910524F41816190634F0C2
S113017003C08EEF90E002C081E090E0909399007C
S113018080939800089580E18DBB83E080936A009A
S1130190089585E084BB089514BA08951F920F92C0
S11301A00FB60F9211248F939F9381E080930002E6
S11301B08091040290910502019690930502809328
S11301C004029F918F910F900FBE0F901F9018956E
S11301D01F920F920FB60F9211248F939F938091C9
S11301E00202909103028130910531F018F00297D8
S11301F059F012C012B811C080B1813011F412B894
S11302000CC081E082B909C080B1823011F412B807
S113021004C082E082B901C012B89F918F910F90FF
S11302200FBE0F901F9018951F920F920FB60F924A
S113023011240BB60F922F933F934F935F936F93B9
S11302407F938F939F93AF93BF93EF93FF9386DF37
S1130250FF91EF91BF91AF919F918F917F916F919A
S11302605F914F913F912F910F900BBE0F900FBE56
S11302700F901F9018957894809104029091050234
S113028082DF15D120E048E060E875E280E090E08C
S11302902FD152DF81E090E065DF9AD199D198D1D6
S11302A097D18FEF9FEF90930502809304021092F1
S11302B003021092020212B8C2E0D0E0E0910402FC
S11302C0F0910502EA30F10508F0E9C08827EE58FC
S11302D0FF4F8F4FB0C180910002882321F010920C
S11302E0000265D156DF82E390E03CDF2FEF81EE20
S11302F094E0215080409040E1F700C0000081E08C
S113030090E0909303028093020282E390E0DFD0B6
S1130310D5CF80910002882319F01092000247D1B2
S113032084E690E0D4D0CACF80910002882319F0EB
S1130330109200023CD186E990E0C9D0BFCF8091F1
S11303400002882319F01092000231D18CEC90E065
S1130350BED0B4CF80910002882309F4AFCF1092AD
S1130360000225D1ABCF80910002882319F01092AE
S113037000021DD184E690E0AAD08EEF90E0F2DE78
S11303809DCF80910002882319F0109200020FD1B2
S113039086E990E09CD092CF80910002882331F0CE
S11303A01092000204D18EEF90E0DCDED0930302C1
S11303B0C09302022FEF85EA9EE0215080409040D6
S11303C0E1F700C0000082E390E0CCDE77CF8091BB
S11303D00002882331F010920002E9D08EEF90E001
S11303E0C1DE81E090E090930302809302022FEF3C
S11303F085EA9EE0215080409040E1F700C0000073
S113040082E390E0AFDE5ACF80910002882331F07E
S113041010920002CCD08EEF90E0A4DE2FEF81EE9C
S113042094E0215080409040E1F700C0000086E94C
S113043090E04DD02FEF81EE94E021508040904029
S1130440E1F700C0000084E690E041D02FEF81EE98
S113045094E0215080409040E1F700C0000082E326
S113046090E035D02FEF81EE94E021508040904011
S1130470E1F700C0000081E090E029D0109203026F
S11304801092020289DE81E090E06CDE809101022C
S1130490882309F413CF1092010289D00FCF109250
S11304A003021092020280E090E011D007CF81ECA9
S11304B08093800084E08093810082E080936F00C9
S11304C010928900109288008FEF81B908958F3FB0
S11304D0910524F41816190634F003C08EEF90E049
S11304E002C081E090E09093890080938800089591
S11304F00F931F93222329F028E92093C9007894AD
S113050003C028E12093C9008B019C010C521140C7
S113051021093109053D104C2140310508F52BEF27
S1130520240F2430E8F4463061F018F4453031F0FB
S113053014C0473051F0483061F00FC01092CA0027
S11305400FC022E02093CA000BC024E02093CA000D
S113055007C026E02093CA0003C026E02093CA0007
S1130560DC01CB01880F991FAA1FBB1F880F991F9D
S1130570AA1FBB1F9C01AD01220F331F441F551F2F
S1130580220F331F441F551F60E074E284EF90E094
S113059030D021502093CC001F910F910895E8ECA6
S11305A0F0E0908195FFFDCF8093CE0008958EE713
S11305B0F6DF81E0F4DF80E0F2DF80E0F0DF80E06E
S11305C0EEDF8FEFECDF8FEFEADF8FEEE8CF0895F9
S11305D08EE7E5DF84E0E3DF80E0E1DF80E0DFDF7A
S11305E080E0DDDF8FEFDBDF8CEFD9DF8FEED7CF5D
S11305F00895A1E21A2EAA1BBB1BFD010DC0AA1F60
S1130600BB1FEE1FFF1FA217B307E407F50720F077
S1130610A21BB30BE40BF50B661F771F881F991FF2
S11306201A9469F760957095809590959B01AC013B
S1130630BD01CF010895EE0FFF1F881F8BBF0790E8
S10D0640F691E02D1994F894FFCF11
S105064A0101A8
S9030000FC
