:100000007DC000009AC0000098C0000096C00000AB
:1000100094C00000C5C00000EAC000008EC000000F
:100020008CC000008AC0000088C0000086C00000AC
:1000300084C0000082C0000080C000007EC00000BC
:100040007CC00000FBC0000078C0000076C000004B
:1000500074C0000072C0000070C000006EC00000DC
:100060006CC000006AC0000068C0000066C00000EC
:1000700064C0000062C0000060C000005EC00000FC
:1000800009C100005AC0000058C0000056C000005E
:1000900054C0000052C0000050C000004EC000001C
:1000A0004CC000004AC0000048C0000046C000002C
:1000B00044C0000042C0000040C000003EC000003C
:1000C0003CC000003AC0000038C0000036C000004C
:1000D00034C0000032C0000030C000002EC000005C
:1000E0002CC000009C01BA01C501D001DB01E60172
:1000F000F10116022102480264026D0211241FBEA2
:10010000CFEFD1E2DEBFCDBF00E00CBF12E0A0E038
:10011000B2E0E0E1F7E000E00BBF02C007900D9213
:10012000A230B107D9F722E0A2E0B2E001C01D92EF
:10013000A630B207E1F7D5D0E9C262CF8FEF87B919
:1001400081EC8093900084E08093910082E0809322
:10015000710010929900109298008AE086B9089573
:1001600086B1809586B908958F3F910524F41816BD
:10017000190634F003C08EEF90E002C081E090E0F9
:100180009093990080939800089580E38DBB8FE051
:1001900080936A00089585E084BB089514BA089599
:1001A0001F920F920FB60F9211242F938F939F934C
:1001B00081E08093000280910402909105020196F3
:1001C00090930502809304022FEF83EC99E0215075
:1001D00080409040E1F700C0000080E28CBB9F911E
:1001E0008F912F910F900FBE0F901F9018951F9217
:1001F0000F920FB60F9211242F938F939F9381E04C
:1002000080930002809104029091050201969093E0
:100210000502809304022FEF83EC99E02150804087
:100220009040E1F700C0000080E18CBB9F918F916E
:100230002F910F900FBE0F901F9018951F920F9245
:100240000FB60F9211248F939F9380910202909189
:1002500003028130910531F018F0029759F012C075
:1002600012B811C080B1813011F412B80CC081E015
:1002700082B909C080B1823011F412B804C082E0A2
:1002800082B901C012B89F918F910F900FBE0F904D
:100290001F9018951F920F920FB60F9211240BB654
:1002A0000F922F933F934F935F936F937F938F930F
:1002B0009F93AF93BF93EF93FF9352DFFF91EF9123
:1002C000BF91AF919F918F917F916F915F914F916E
:1002D0003F912F910F900BBE0F900FBE0F901F906C
:1002E0001895789452DF46D120E048E060E875E246
:1002F00080E090E060D122DF81E090E035DFCBD17B
:10030000CAD1C9D1C8D1109205021092040210922C
:1003100003021092020212B8C2E0D0E0E09104029F
:10032000F09105023197EC30F10508F01EC18827E5
:10033000EE58FF4F8F4FE2C180910002882381F079
:100340001092000297D127DF2FEF87EA91E6215024
:1003500080409040E1F700C0000082E390E004DFBD
:1003600081E090E0909303028093020286E990E09E
:1003700011D1D4CF80910002882319F07BD1109243
:10038000000288EC90E006D1C9CF8091000288235A
:1003900019F070D1109200028EEF90E0FBD0BECF2A
:1003A00080910002882319F065D11092000284E642
:1003B00090E0F0D0B3CF80910002882319F05AD199
:1003C0001092000286E990E0E5D0A8CF809100026B
:1003D000882319F04FD11092000286E990E0DAD01C
:1003E0009DCF80910002882309F498CF43D11092C9
:1003F0000002D0930302C09302028FE39CE90197AD
:10040000F1F700C0000086E990E0C4D08EEF90E0E4
:10041000ABDE9FEF29E688E1915020408040E1F774
:1004200000C0000082E390E09FDE78CF8091000260
:10043000882319F01FD11092000288EC90E0AAD016
:100440006DCF80910002882309F468CF13D11092F8
:1004500000028EEF90E088DE81E090E0909303024E
:10046000809302028FE39CE90197F1F700C000003E
:1004700086E990E08FD09FEF29E688E191502040F7
:100480008040E1F700C0000082E390E06DDE46CFDF
:1004900080910002882309F441CFECD01092000231
:1004A00010920302109202029FEF2DE389E4915013
:1004B00020408040E1F700C0000081E090E0909390
:1004C0000302809302022ACF80910002882309F45C
:1004D00025CFD0D01092000221CF80910002882336
:1004E00039F1C8D0109200028EEF90E03DDE9FEF10
:1004F00026E181E1915020408040E1F700C00000FA
:1005000084E690E047D09FEF26E181E191502040C2
:100510008040E1F700C0000082E390E03BD09FEF15
:1005200026E181E1915020408040E1F700C00000C9
:1005300081E090E02FD010920302109202029FEF10
:1005400029E688E1915020408040E1F700C000009A
:1005500025DE81E090E008DE80910102882309F425
:10056000DDCE1092010286D0D9CE109203021092F5
:100570000202D4CE81EC8093800084E080938100DD
:1005800082E080936F0010928900109288008FEFB4
:1005900081B908958F3F910524F41816190634F097
:1005A00003C08EEF90E002C081E090E0909389005C
:1005B0008093880008950F931F93222329F028E940
:1005C0002093C900789403C028E12093C9008B01CF
:1005D0009C010C52114021093109053D104C21406C
:1005E000310508F52BEF240F2430E8F4463061F094
:1005F00018F4453031F014C0473051F0483061F004
:100600000FC01092CA000FC022E02093CA000BC096
:1006100024E02093CA0007C026E02093CA0003C04C
:1006200026E02093CA00DC01CB01880F991FAA1F86
:10063000BB1F880F991FAA1FBB1F9C01AD01220F72
:10064000331F441F551F220F331F441F551F60E0E7
:1006500074E284EF90E030D021502093CC001F91C1
:100660000F910895E8ECF0E0908195FFFDCF809325
:10067000CE0008958EE7F6DF81E0F4DF80E0F2DF60
:1006800080E0F0DF80E0EEDF8FEFECDF8FEFEADF7E
:100690008FEEE8CF08958EE7E5DF84E0E3DF80E0CA
:1006A000E1DF80E0DFDF80E0DDDF8FEFDBDF8CEF9D
:1006B000D9DF8FEED7CF0895A1E21A2EAA1BBB1B5C
:1006C000FD010DC0AA1FBB1FEE1FFF1FA217B3071E
:1006D000E407F50720F0A21BB30BE40BF50B661F34
:1006E000771F881F991F1A9469F7609570958095F8
:1006F00090959B01AC01BD01CF010895EE0FFF1F46
:10070000881F8BBF0790F691E02D1994F894FFCFC6
:020710000101E5
:00000001FF
